:020000040800F2
:1000000000500020650C0008B50C0008B50C000875
:10001000B50C0008B50C0008B50C00080000000085
:10002000000000000000000000000000B50C000807
:10003000B50C000800000000B50C0008D90B000842
:10004000B50C0008B50C0008B50C0008B50C00088C
:10005000B50C0008B50C000841070008B50C0008F5
:10006000B50C0008B50C0008B50C0008B50C00086C
:10007000B50C0008B50C0008B50C0008B50C00085C
:10008000B50C0008B50C0008B50C0008B50C00084C
:10009000B50C0008B50C0008B50C0008B50C00083C
:1000A000B50C0008B50C0008B50C0008B50C00082C
:1000B000B50C0008B50C0008B50C0008B50C00081C
:1000C000B50C0008B50C0008B50C0008B50C00080C
:1000D000B50C0008B50C0008B50C0008B50C0008FC
:1000E000B50C0008B50C000800000000B50C0008B5
:1000F000B50C0008B50C0008B50C0008B50C0008DC
:10010000B50C0008B50C0008B50C0008B50C0008CB
:10011000B50C0008B50C0008B50C0008B50C0008BB
:10012000B50C0008B50C0008B50C0008B50C0008AB
:1001300010B5054C237833B9044B13B10448AFF321
:1001400000800123237010BD00000020000000008B
:10015000000D000808B5034B1BB103490348AFF37A
:10016000008008BD0000000004000020000D000811
:1001700080F0004002E000BF81F0004142001FBF5C
:100180005FEA410392EA030F7FEA226C7FEA236C65
:100190006AD04FEA1262D2EB1363C1BFD21841405A
:1001A00048404140B8BF5B42192B88BF704710F0F0
:1001B000004F40F4000020F07F4018BF404211F093
:1001C000004F41F4000121F07F4118BF494292EAFB
:1001D000030F3FD0A2F1010241FA03FC10EB0C0027
:1001E000C3F1200301FA03F100F0004302D54942B4
:1001F00060EB4000B0F5000F13D3B0F1807F06D361
:1002000040084FEA310102F10102FE2A51D2B1F158
:10021000004F40EBC25008BF20F0010040EA03004D
:100220007047490040EB0000013A28BFB0F5000FCD
:10023000EDD2B0FA80FCACF1080CB2EB0C0200FA83
:100240000CF0AABF00EBC25052421843BCBFD040D2
:100250001843704792F0000F81F4000106BF80F44C
:1002600000000132013BB5E74FEA41037FEA226C0F
:1002700018BF7FEA236C21D092EA030F04D092F0DA
:10028000000F08BF0846704790EA010F1CBF00200E
:10029000704712F07F4F04D1400028BF40F000406B
:1002A000704712F100723CBF00F50000704700F08B
:1002B000004343F0FE4040F4000070477FEA2262B2
:1002C00016BF08467FEA23630146420206BF5FEA83
:1002D000412390EA010F40F4800070474FF0000383
:1002E00004E000BF10F0004348BF40425FEA000C4A
:1002F00008BF704743F0964301464FF000001CE0F2
:1003000050EA010208BF70474FF000030AE000BF47
:1003100050EA010208BF704711F0004302D5404285
:1003200061EB41015FEA010C02BF844601460020F7
:1003300043F0B64308BFA3F18053A3F50003BCFA12
:100340008CF2083AA3EBC25310DB01FA02FC6344BF
:1003500000FA02FCC2F12002BCF1004F20FA02F2C6
:1003600043EB020008BF20F00100704702F12002B9
:1003700001FA02FCC2F1200250EA4C0021FA02F21A
:1003800043EB020008BF20EADC7070474FF0FF0C1F
:100390001CEAD0521EBF1CEAD15392EA0C0F93EA1A
:1003A0000C0F6FD01A4480EA010C400218BF5FEABC
:1003B00041211ED04FF0006343EA501043EA51112F
:1003C000A0FB01310CF00040B1F5000F3EBF490029
:1003D00041EAD3715B0040EA010062F17F02FD2A2D
:1003E0001DD8B3F1004F40EBC25008BF20F0010010
:1003F000704790F0000F0CF0004C08BF49024CEA27
:10040000502040EA51207F3AC2BFD2F1FF0340EAB8
:10041000C250704740F400004FF00003013A5DDC29
:1004200012F1190FDCBF00F000407047C2F100026A
:10043000410021FA02F1C2F1200200FA02FC5FEA57
:10044000310040F1000053EA4C0308BF20EADC70A1
:10045000704792F0000F00F0004C02BF400010F413
:10046000000F013AF9D040EA0C0093F0000F01F0C0
:10047000004C02BF490011F4000F013BF9D041EAE2
:100480000C018FE70CEAD15392EA0C0F18BF93EAE4
:100490000C0F0AD030F0004C18BF31F0004CD8D10E
:1004A00080EA010000F00040704790F0000F17BF95
:1004B00090F0004F084691F0000F91F0004F14D0DB
:1004C00092EA0C0F01D142020FD193EA0C0F03D133
:1004D0004B0218BF084608D180EA010000F0004036
:1004E00040F0FE4040F40000704740F0FE4040F411
:1004F000400070474FF0FF0C1CEAD0521EBF1CEAB0
:10050000D15392EA0C0F93EA0C0F69D0A2EB0302CD
:1005100080EA010C49024FEA402037D04FF0805367
:1005200043EA111143EA10130CF000408B4238BF2C
:100530005B0042F17D024FF4000C8B4224BF5B1A3A
:1005400040EA0C00B3EB510F24BFA3EB510340EA88
:100550005C00B3EB910F24BFA3EB910340EA9C0036
:10056000B3EBD10F24BFA3EBD10340EADC001B01A6
:1005700018BF5FEA1C1CE0D1FD2A3FF650AF8B424A
:1005800040EBC25008BF20F0010070470CF0004C57
:100590004CEA50207F32C2BFD2F1FF0340EAC25082
:1005A000704740F400004FF00003013A37E792F043
:1005B000000F00F0004C02BF400010F4000F013AA1
:1005C000F9D040EA0C0093F0000F01F0004C02BF9C
:1005D000490011F4000F013BF9D041EA0C0195E705
:1005E0000CEAD15392EA0C0F08D142027FF47DAF9E
:1005F00093EA0C0F7FF470AF084676E793EA0C0F8E
:1006000004D14B023FF44CAF08466EE730F0004C8B
:1006100018BF31F0004CCAD130F000427FF45CAF1B
:1006200031F000437FF43CAF5FE700BF42000ED2E1
:10063000B2F1FE4F0BD34FF09E03B3EB126209D41D
:100640004FEA002343F0004323FA02F070474FF0D3
:100650000000704712F1610F01D1420202D14FF048
:10066000FF3070474FF00000704700BF80B500AF0B
:1006700001220121002000F053F91E49642000F0FE
:100680006FFA00220121002000F04AF919490120E7
:1006900000F066FA01220121002000F041F915491D
:1006A000642000F05DFA00220121002000F038F9FA
:1006B0001049642000F054FA01220121002000F0CA
:1006C0002FF94FF47A71782000F04AFA112000F0E7
:1006D00013F84FF47A71962000F042FA3A2000F0B5
:1006E0000BF8052000F01AF8292000F005F800BFEB
:1006F00080BD00BF40420F0080B582B000AF03460E
:10070000FB7100220221002000F00AF9FB79184653
:1007100000F0F8F900BF0837BD4680BD80B582B053
:1007200000AF0346FB7101220221002000F0F8F81F
:10073000FB79184600F0E6F900BF0837BD4680BDDA
:1007400080B582B000AF084B1B689847074B5B69C8
:100750007B60064B5B69054A43F00103536100BFB0
:100760000837BD4680BD00BF1C00002000040140CA
:1007700080B483B000AF0346FB710B46BB711346D8
:100780007B71FB79022B7AD0022B00F3B180002B16
:1007900002D0012B3AD0ABE0BB79072B17D85A4BCC
:1007A0001B68BA7992000F2101FA02F2D243114676
:1007B000554A0B401360544B1B687979BA79920003
:1007C00001FA02F21146504A0B43136092E0BB79E2
:1007D0000F2B00F28F80BB79083BBB714B4B1B6822
:1007E000BA7992000F2101FA02F2D2431146474A28
:1007F0000B401360454B1B687979BA79920001FA76
:1008000002F21146414A0B43136073E0BB79072B98
:1008100017D83F4B1B68BA7992000F2101FA02F2F8
:10082000D24311463A4A0B401360394B1B68797921
:10083000BA79920001FA02F21146354A0B4313606D
:100840005AE0BB790F2B57D8BB79083BBB71314BB2
:100850001B68BA7992000F2101FA02F2D2431146C5
:100860002C4A0B4013602B4B1B687979BA799200A4
:1008700001FA02F21146274A0B4313603CE0BB79B0
:10088000072B17D8244B1B68BA7992000F2101FA65
:1008900002F2D2431146204A0B4013601E4B1B68E4
:1008A0007979BA79920001FA02F211461A4A0B4399
:1008B000136023E0BB790F2B20D8BB79083BBB71B9
:1008C000164B1B68BA7992000F2101FA02F2D2434B
:1008D0001146124A0B401360104B1B687979BA79A4
:1008E000920001FA02F211460C4A0B43136005E034
:1008F00000BF04E000BF02E000BF00E000BF00BF97
:100900000C37BD4680BC7047000801400408014018
:10091000000C0140040C0140001001400410014093
:1009200080B483B000AF0346FB710B46BB71134626
:100930007B71FB79022B2AD0022B3ADC002B02D0F0
:10094000012B12D035E07B79012B05D1BB79012237
:100950009A401E4B1A602EE07B79002B2BD1BB797D
:1009600001229A401A4B1A6025E07B79012B05D1B0
:10097000BB7901229A40174B1A601EE07B79002B4D
:100980001BD1BB7901229A40134B1A6015E07B7989
:10099000012B05D1BB7901229A40104B1A600EE061
:1009A0007B79002B0BD1BB7901229A400C4B1A604A
:1009B00005E000BF04E000BF02E000BF00E000BFB0
:1009C00000BF0C37BD4680BC704700BF1008014017
:1009D00014080140100C0140140C0140101001409B
:1009E0001410014080B400AF094B1B68084A43F063
:1009F00001031360074B1B68064A23F003031360CF
:100A0000044B044A1B68136000BFBD4680BC70479E
:100A1000001002400410024080B483B000AF0346CF
:100A20000A46FB711346BB71FB79022B1CD0022BCB
:100A300025DC002B02D0012B0BD020E0124B1B68D1
:100A4000BA79012101FA02F211460F4A0B431360F1
:100A500015E00E4B1B68BA79012101FA02F211462A
:100A60000A4A0B4313600AE0094B1B68BA7901215B
:100A700001FA02F21146064A0B43136000BF00BFA1
:100A80000C37BD4680BC7047141002401C10024059
:100A90001810024080B500AF194B1B68184A43F08C
:100AA00004031360012204210020FFF761FE0922E4
:100AB00007210020FFF75CFE042206210020FFF73B
:100AC00057FE092205210020FFF752FE0C4B1B6840
:100AD0000B4A43F001031360094B094A1B6813607A
:100AE000074B074A1B681360054B054A1B681360D8
:100AF000034B1B68024A43F04003136000BF80BDF4
:100B00000030014080B483B000AF0346FB7100BFEA
:100B1000064B9B6803F00203002BF9D0034AFB79D4
:100B2000D36000BF0C37BD4680BC70470030014029
:100B300080B400AF094B1B68084A23F0010313601F
:100B4000064B1B68054A43F004031360034B002265
:100B50009A6000BFBD4680BC704700BF10E000E057
:100B600080B584B000AF78603960194A3B68B2FB49
:100B7000F3F31846FFF7B2FB0346FB607868FFF714
:100B8000ADFB0346F9681846FFF700FC034618461C
:100B9000FFF74CFD0346BB600E4ABB6823F07F4362
:100BA00053600C4B1B680B4A43F00103136000BFFA
:100BB000084B1B6803F48033002BF9D0054B1B68EE
:100BC000044A23F00103136000BF1037BD4680BD07
:100BD00000127A0010E000E080B582B000AF0A4B4E
:100BE0001B689847094B1B687B60094B1B78002BDF
:100BF00005D1064B1B68054A23F00103136000BFB3
:100C00000837BD4680BD00BF5C00002010E000E05A
:100C10006000002080B500AFFFF7E4FE0221022053
:100C2000FFF7FAFE0C210220FFF7F6FE0222012157
:100C30000020FFF79DFD022202210020FFF798FD12
:100C4000092205210020FFF793FD0922072100203A
:100C5000FFF78EFDFFF76CFFFFF71CFFFFF706FDA8
:100C600000BFFDE70D488546AFF300800C480D49F5
:100C70000D4A002302E0D458C4500433C4188C42F7
:100C8000F9D30A4A0A4C002301E013600432A2425D
:100C9000FBD300F011F8FFF7BDFFFEE70050002086
:100CA0000000002000000020200D000800000020AF
:100CB00064000020FEE7000070B500260C4D0D4CCE
:100CC000641BA410A64209D100F01AF800260A4DB0
:100CD0000A4C641BA410A64205D170BD55F8043B14
:100CE00098470136EEE755F8043B98470136F2E79E
:100CF000180D0008180D0008180D00081C0D00083C
:100D0000F8B500BFF8BC08BC9E467047F8B500BFF8
:080D1000F8BC08BC9E467047C8
:040D18005501000879
:040D1C003101000899
:0400000508000C657E
:00000001FF
